:020000040800F2
:1000000000000220F9D9000821BC00082FBC00081C
:1000100035BC00083BBC000841BC000800000000E3
:1000200000000000000000000000000047BC0008C5
:1000300055BC00080000000063BC000871BC00084B
:1000400049DA000849DA000849DA000849DA000804
:1000500049DA000849DA000849DA000849DA0008F4
:1000600049DA000849DA000849DA00087DBC0008CE
:1000700049DA000849DA000849DA000849DA0008D4
:1000800049DA000849DA000849DA000849DA0008C4
:1000900049DA000849DA000849DA000849DA0008B4
:1000A00049DA000849DA000849DA000849DA0008A4
:1000B00049DA000849DA000849DA000849DA000894
:1000C00049DA000849DA000849DA000849DA000884
:1000D00049DA000849DA000849DA000849DA000874
:1000E00049DA000849DA00080000000049DA00088F
:1000F00049DA000849DA000849DA000849DA000854
:1001000049DA000849DA000849DA000891BC000819
:1001100049DA000849DA000849DA0008A5BC0008F5
:1001200049DA000849DA000849DA000849DA000823
:1001300049DA000849DA000849DA000849DA000813
:1001400000000000000000000000000000000000AF
:1001500049DA000849DA000849DA000849DA0008F3
:1001600049DA000849DA000849DA000849DA0008E3
:1001700049DA000849DA000849DA000800000000FE
:1001800049DA000849DA000849DA000849DA0008C3
:1001900049DA000849DA000849DA000849DA0008B3
:1001A00049DA000849DA000849DA000849DA0008A3
:1001B00049DA000849DA000849DA000849DA000893
:1001C00049DA000849DA000849DA000849DA000883
:1001D00049DA0008C1BC000849DA000849DA000819
:1001E00049DA000849DA000849DA000849DA000863
:1001F00049DA000849DA000849DA000849DA000853
:1002000049DA000849DA000849DA000849DA000842
:1002100049DA000849DA000849DA000849DA000832
:1002200049DA000849DA000849DA0008000000004D
:1002300049DA000849DA00080000000049DA00083D
:1002400049DA000849DA000849DA000849DA000802
:1002500049DA000849DA000849DA000849DA0008F2
:1002600049DA000849DA000849DA000849DA0008E2
:1002700049DA000849DA000849DA000800000000FD
:1002800049DA00080000000049DA00080000000018
:080290000000000049DA00083B
:1002980010B5054C237833B9044B13B10448AFF3B8
:1002A80000800123237010BDF4010020000000002D
:1002B800E8DC000808B5034B1BB103490348AFF35A
:1002C800008008BD00000000F8010020E8DC0008FC
:1002D80053B94AB9002908BF00281CBF4FF0FF31A5
:1002E8004FF0FF3000F07AB9ADF1080C6DE904CE9B
:1002F80000F006F8DDF804E0DDE9022304B07047F9
:100308002DE9F0478C460D460446089E002B51D136
:100318008A4217466DD9B2FA82FEBEF1000F0BD0A1
:10032800CEF1200C01FA0EF520FA0CFC02FA0EF7B9
:100338004CEA050C00FA0EF44FEA174A250CBCFBF0
:10034800FAF81FFA87F90AFB18CC45EA0C4508FBAE
:1003580009F3AB420AD9ED1908F1FF3280F0238185
:10036800AB4240F22081A8F102083D44ED1AA4B244
:10037800B5FBFAF00AFB105544EA054400FB09F9FD
:10038800A14509D9E41900F1FF3380F00A81A1459C
:1003980040F2078102383C44A4EB090440EA0840D3
:1003A8000021002E61D024FA0EF40023346073601B
:1003B800BDE8F0878B4207D9002E54D0002186E88B
:1003C80021000846BDE8F087B3FA83F1002940F020
:1003D8008E80AB4202D3824200F2FA80841A65EB27
:1003E80003050120AC46002E3FD086E81010BDE87A
:1003F800F08712B90127B7FBF2F7B7FA87FEBEF10B
:10040800000F34D1EB1B3A0C1FFA87FC0121B3FB18
:10041800F2F8250C02FB183345EA03450CFB08F3F8
:10042800AB4207D9ED1908F1FF3002D2AB4200F216
:10043800D1808046ED1AA3B2B5FBF2F002FB10554D
:1004480043EA05440CFB00FCA44507D9E41900F174
:10045800FF3302D2A44500F2B8801846A4EB0C047E
:1004680040EA08409DE731463046BDE8F087CEF1C6
:10047800200405FA0EF307FA0EF720FA04F83A0CEE
:1004880025FA04F448EA0308B4FBF2F14FEA1845E8
:1004980002FB11441FFA87FC45EA044501FB0CF3F3
:1004A800AB4200FA0EF409D9ED1901F1FF3080F0E2
:1004B8008A80AB4240F2878002393D44EB1A1FFA2A
:1004C80088F5B3FBF2F002FB103345EA034500FB65
:1004D8000CF3AB4207D9ED1900F1FF386FD2AB42EC
:1004E8006DD902383D44EB1A40EA01418FE7C1F16A
:1004F800200722FA07F88B4005FA01F448EA0303BB
:1005080020FA07FE4FEA134CFD404EEA040EB5FBF5
:10051800FCF94FEA1E440CFB19551FFA83F844EA0C
:10052800054509FB08F4AC4202FA01F200FA01FAA7
:1005380008D9ED1809F1FF3043D2AC4241D9A9F1ED
:1005480002091D442D1B1FFA8EFEB5FBFCF00CFBA7
:1005580010554EEA054400FB08F8A04507D9E418F1
:1005680000F1FF3529D2A04527D902381C4440EABA
:100578000940A4EB0804A0FB02894C45C6464D4639
:1005880015D312D056B1BAEB0E0364EB050404FA86
:1005980007F7CB401F43CC40376074600021BDE8AB
:1005A800F0871846F8E69046E0E6C245EAD2B8EB8E
:1005B800020E69EB03050138E4E72846D7E7404611
:1005C80091E78146BEE7014678E702383C4445E7B3
:1005D800084608E7A8F102083D442BE7704700BF2A
:1005E80080B500AF032000F04DF9002000F00AF8B4
:1005F8000346002B01D0012302E00BF0A5F90023EC
:10060800184680BD80B582B000AF7860124B1A687A
:10061800124B1B7819464FF47A73B3FBF1F3B2FB14
:10062800F3F3184600F061F90346002B01D00123CB
:100638000EE07B680F2B0AD8002279684FF0FF3054
:1006480000F02BF9064A7B681360002300E00123C1
:1006580018460837BD4680BD180100200400002058
:100668000000002080B400AF064B1B781A46064BEA
:100678001B681344044A136000BFBD465DF8047B41
:10068800704700BF040000201002002080B400AFB3
:10069800034B1B681846BD465DF8047B704700BFD6
:1006A8001002002080B584B000AF7860FFF7EEFF3D
:1006B800B8607B68FB60FB68B3F1FF3F05D0094B6E
:1006C8001B781A46FB681344FB6000BFFFF7DEFF88
:1006D8000246BB68D21AFB689A42F7D300BF1037AC
:1006E800BD4680BD0400002080B485B000AF7860AE
:1006F8007B6803F00703FB600B4BDB68BB60BA68E1
:100708004FF6FF031340BB60FB681A02BB681A432D
:10071800064B1343BB60044ABB68D36000BF143761
:10072800BD465DF8047B704700ED00E00000FA0567
:1007380080B400AF044BDB681B0A03F007031846BC
:10074800BD465DF8047B704700ED00E080B483B0DF
:1007580000AF0346FB80B7F90630002B0BDB0949D5
:10076800B7F906305B09FA8802F01F02012000FA87
:1007780002F241F8232000BF0C37BD465DF8047B28
:10078800704700BF00E100E080B483B000AF0346CB
:100798003960FB80B7F90630002B0ADB0D49B7F941
:1007A80006303A68D2B21201D2B20B4483F8002361
:1007B8000AE00949FB8803F00F03043B3A68D2B208
:1007C8001201D2B20B441A7600BF0C37BD465DF851
:1007D800047B704700E100E000ED00E080B489B0E0
:1007E80000AFF860B9607A60FB6803F00703FB614B
:1007F800FB69C3F10703042B28BF0423BB61FB6912
:100808000433062B02D9FB69033B00E000237B611C
:100818000122BB6902FA03F35A1EBB681A407B69BE
:100828009A4001217B6901FA03F3591E7B680B404A
:10083800134318462437BD465DF8047B7047000013
:1008480080B582B000AF78607B68013BB3F1807FF0
:1008580001D301230FE00A4A7B68013B53600F2153
:100868004FF0FF30FFF790FF054B00229A60044BD2
:1008780007221A60002318460837BD4680BD00BF0E
:1008880010E000E080B582B000AF78607868FFF7CC
:100898002BFF00BF0837BD4680BD80B586B000AFCE
:1008A8000346B9607A60FB81FFF742FF78617A6896
:1008B800B9687869FFF792FF0246B7F90E3011461A
:1008C8001846FFF761FF00BF1837BD4680BD80B5E9
:1008D80082B000AF0346FB80B7F906301846FFF731
:1008E80035FF00BF0837BD4680BD80B582B000AF78
:1008F80078607868FFF7A4FF034618460837BD46B6
:1009080080BD000080B586B000AF786000237B61B1
:10091800FFF7BCFE38610023FB607B68002B01D128
:10092800012368E17B681B681A468D4B9A4207D9F8
:100938007B681B681A468B4B9A4201D8012300E05A
:100948000023002B00F0A5807B68002283F8342068
:100958007B68022283F835207B681B681A46804B27
:100968009A420ED97B681B681A467E4B9A4208D871
:100978007B681B687A681268126822F001021A60A4
:1009880007E07B681B687A681268126822F0010227
:100998001A600FE0FFF77AFE02463B69D31A052B6F
:1009A80008D97B6820225A657B68032283F83520A2
:1009B800012320E17B681B681B6803F00103002BFF
:1009C800E8D17B681B681B687B617A69664B1340BA
:1009D8007B617B689A687B68DB681A437B681B6964
:1009E8001A437B685B691A437B689B691A437B6877
:1009F800DB691A437B681B6A13437A6913437B617B
:100A08007B685B6A042B07D17B68DA6A7B681B6B9F
:100A180013437A6913437B617B681B687A691A60A0
:100A28007B681B685B697B617B6923F007037B61DB
:100A38007B685B6A7A6913437B617B685B6A042B1A
:100A480017D17B689B6A7A6913437B617B68DB6A91
:100A5800002B0ED0786800F0BBFC0346002B08D0B2
:100A68007B6840225A657B68012283F83520012380
:100A7800C1E07B681B687A695A61786800F072FC8B
:100A88000346FB607B68DB6D3F229A40FB689A60F7
:100A980076E07B681B681A46344B9A4207D97B6814
:100AA8001B681A46324B9A4201D8012300E0002302
:100AB800002B4BD07B68002283F834207B6802220D
:100AC80083F835207B681B681B687B617A69294B32
:100AD80013407B617B689B68402B08D07B689B68D0
:100AE800802B02D14FF4804302E0002300E0102362
:100AF8007A68D268D2081A437B681B69DB081A43F4
:100B08007B685B69DB081A437B689B69DB081A43CF
:100B18007B68DB69DB0803F020031A437B681B6AE8
:100B28001B0913437A6913437B617B681B687A69E5
:100B38001A607B681B681A460F4B13440F4AA2FBC6
:100B480003231B099A007B68DA6519E07B68402259
:100B58005A657B68032283F8352001234BE000BFE8
:100B68000F000240B80402403F8010FE07540258AC
:100B7800945402580F80FFFFF8ABFDA7CDCCCCCC26
:100B8800786800F0A1FC7B689B68802B02D17B68A9
:100B980000225A607B681B6E7A685268D2B21A606B
:100BA8007B685B6E7A68926E5A607B685B68002B24
:100BB80010D07B685B68082B0CD8786800F0ECFCD8
:100BC8007B68DB6E00221A607B681B6F7A68526F45
:100BD8005A6008E07B680022DA667B6800221A67A0
:100BE8007B6800225A677B6800225A657B6801226D
:100BF80083F83520002318461837BD4680BD00BF4E
:100C080080B582B000AF78607B68002B01D10123EA
:100C180098E07B6893F83530DBB2022B04D07B6810
:100C280080225A6501238DE07B681B681A46474B72
:100C38009A4207D97B681B681A46454B9A4201D8E5
:100C4800012300E00023002B21D07B68042283F8D5
:100C580035207B681B681A463C4B9A420ED97B6844
:100C68001B681A463A4B9A4208D87B681B687A6810
:100C78001268126822F001021A6062E07B681B6841
:100C88007A681268126822F001021A6059E07B68DB
:100C98001B687A681268126822F00E021A607B6874
:100CA8001B681A46294B9A420ED97B681B681A465C
:100CB800274B9A4208D87B681B687A6812681268C2
:100CC80022F001021A6007E07B681B687A681268E4
:100CD800126822F001021A607B681B6E7A68126E35
:100CE800126822F480721A601A4A7B68DB6D01214F
:100CF80001FA03F353607B685B6E7A68926E5A6000
:100D08007B68DB6E002B0CD07B68DB6E7A68D26E5A
:100D1800126822F480721A607B681B6F7A68526FBF
:100D28005A607B68002283F834207B68012283F8AC
:100D380035207B681B6D002B03D07B681B6D7868A2
:100D48009847002318460837BD4680BD0F0002406B
:100D5800B80402400054025880B588B000AF7860EB
:100D68000023FB610023BB610023FB60884B1B68E9
:100D7800884AA2FB03239B0A7B617B689B6D3B61CE
:100D88003B691B68FB617B681B681A46824B9A4269
:100D980007D97B681B681A46804B9A4201D8012301
:100DA80000E00023002B00F01F827B68DB6D082227
:100DB8009A40FB691340002B36D07B681B681A46A3
:100DC800754B9A4210D97B681B681A46734B9A4236
:100DD8000AD87B681B681B6803F00403002B14BF48
:100DE80001230023DBB209E07B681B681B6803F062
:100DF8000803002B14BF01230023DBB2002B13D000
:100E08007B681B687A681268126822F004021A600C
:100E18007B68DB6D08229A403B699A607B685B6D52
:100E280043F001027B685A657B68DB6D5C4A9A4037
:100E3800FB691340002B28D07B681B681A46564B69
:100E48009A4210D97B681B681A46544B9A420AD8B2
:100E58007B681B685B6903F08003002B14BF0123C8
:100E68000023DBB203E07B681B681B680023002BB0
:100E78000BD07B68DB6D4A4A9A403B699A607B6875
:100E88005B6D43F002027B685A657B68DB6D454AFF
:100E98009A40FB691340002B28D07B681B681A46D0
:100EA8003D4B9A4210D97B681B681A463B4B9A42C5
:100EB8000AD87B681B681B6803F00203002B14BF69
:100EC80001230023DBB203E07B681B681B68002357
:100ED800002B0BD07B68DB6D324A9A403B699A60E5
:100EE8007B685B6D43F004027B685A657B68DB6D49
:100EF80010229A40FB691340002B6CD07B681B685A
:100F08001A46254B9A4210D97B681B681A46234B10
:100F18009A420AD87B681B681B6803F00803002BF9
:100F280014BF01230023DBB209E07B681B681B6840
:100F380003F00403002B14BF01230023DBB2002BB2
:100F480049D07B68DB6D10229A403B699A607B68C8
:100F58001B681B6803F48023002B25D07B681B6863
:100F68001B6803F40023002B08D17B681B6C002B43
:100F780031D07B681B6C786898472CE07B689B6C49
:100F8800002B28D07B689B6C7868984723E000BFCB
:100F980018010020B5814E1B0F000240B804024022
:100FA80001008000040080007B681B681B6803F454
:100FB8008073002B07D17B681B687A6812681268F7
:100FC80022F008021A607B681B6C002B03D07B6838
:100FD8001B6C786898477B68DB6D20229A40FB6918
:100FE8001340002B00F0A7807B681B681A46854BCE
:100FF8009A4210D97B681B681A46834B9A420AD8D2
:101008007B681B681B6803F01003002B14BF0123C7
:101018000023DBB209E07B681B681B6803F002034E
:10102800002B14BF01230023DBB2002B00F08380C8
:101038007B68DB6D20229A403B699A607B6893F855
:101048003530DBB2042B37D17B681B687A681268AD
:10105800126822F016021A607B681B687A681268A8
:10106800526922F080025A617B681B6C002B03D105
:101078007B689B6C002B07D07B681B687A681268BA
:10108800126822F008021A607B68DB6D3F229A40E2
:101098003B699A607B68002283F834207B680122D0
:1010A80083F835207B681B6D002B00F054817B682A
:1010B8001B6D786898474EE17B681B681B6803F4D2
:1010C8008023002B18D07B681B681B6803F400235F
:1010D800002B08D17B685B6C002B2CD07B685B6C89
:1010E8007868984727E07B68DB6B002B23D07B6808
:1010F800DB6B786898471EE07B681B681B6803F405
:101108008073002B0FD17B681B687A68126812689D
:1011180022F010021A607B68002283F834207B6872
:10112800012283F835207B68DB6B002B03D07B68BA
:10113800DB6B786898477B685B6D002B00F00C814F
:101148007B685B6D03F00103002B43D07B680422AE
:1011580083F835207B681B681A462A4B9A420ED9B9
:101168007B681B681A46284B9A4208D87B681B681C
:101178007A681268126822F001021A6007E07B6838
:101188001B687A681268126822F001021A60FB680C
:101198000133FB607A69934207D87B681B681B6838
:1011A80003F00103002BF2D100E000BF7B680022AE
:1011B80083F834207B681B681B6803F00103002B4D
:1011C80004D07B68032283F8352003E07B68012282
:1011D80083F835207B68DB6C002B00F0BD807B68D2
:1011E800DB6C78689847B7E07B681B681A46074B42
:1011F8009A420FD97B681B681A46054B9A4209D850
:10120800012308E00F000240B804024007540258C6
:10121800945402580023002B00F09E807B681B68C2
:10122800BB614F4B1A687B68DB6D042101FA03F33D
:101238001340002B24D0BB691B6803F00403002B68
:101248001ED0BB691B6803F02003002B05D1BB69C6
:101258001B6823F00402BB691A604149404B5A6875
:101268007B68DB6D042000FA03F313434B607B6853
:101278001B6C002B70D07B681B6C786898476BE000
:10128800374B1A687B68DB6D022101FA03F31340C0
:10129800002B2CD0BB691B6803F00203002B26D05F
:1012A800BB691B6803F02003002B0DD1BB691B68C9
:1012B80023F00A02BB691A607B68002283F8342095
:1012C8007B68012283F835202549254B5A687B68BD
:1012D800DB6D022000FA03F313434B607B68DB6B82
:1012E800002B39D07B68DB6B7868984734E01C4B5F
:1012F8001A687B68DB6D082101FA03F31340002BA1
:101308002AD0BB691B6803F00803002B24D0BB69F3
:101318001B6823F00E02BB691A601149104B5A680A
:101328007B68DB6D012000FA03F313434B607B6895
:1013380001225A657B68002283F834207B680122E9
:1013480083F835207B68DB6C002B05D07B68DB6C71
:101358007868984700E000BF2037BD4680BD00BFD1
:101368000054025880B485B000AF78607B681B6871
:10137800DBB2103B134AA2FB03231B09FB60124A92
:10138800FB6813441B781A467B68DA65FB68032BF5
:1013980008D97B681B681A460C4B13401A1D7B68DA
:1013A8009A6506E07B681B681A46084B13407A6802
:1013B80093657B689B6D18461437BD465DF8047BC2
:1013C800704700BFABAAAAAA74DD000800FCFFFFA3
:1013D80080B485B000AF78600023FB737B689B699D
:1013E800002B20D17B689B6A032B58D801A252F8A6
:1013F80023F000BF0D1400081F1400080D14000886
:10140800A71400087B68DB6A03F08073002B48D0C0
:101418000123FB7345E07B68DB6AB3F1C07F42D1EF
:101428000123FB733FE07B689B69B3F5005F23D121
:101438007B689B6A032B38D801A252F823F000BFBF
:10144800591400085F1400085914000871140008A2
:101458000123FB7330E07B68DB6A03F08073002BA9
:1014680025D00123FB7322E07B68DB6AB3F1C07FE0
:101478001FD10123FB731CE07B689B6A022B02D9F6
:10148800032B03D018E00123FB7315E07B68DB6AAC
:1014980003F08073002B0ED00123FB730BE000BF19
:1014A8000AE000BF08E000BF06E000BF04E000BF9C
:1014B80002E000BF00E000BFFB7B18461437BD46C2
:1014C8005DF8047B704700BF80B485B000AF7860DA
:1014D8000023FB607B681B68BB60BB68244A93429F
:1014E8001CD8BB68234A934218D97B681B68DBB2B7
:1014F800083B214AA2FB03231B09FB60FA681F4B28
:1015080013449B001A467B681A667B681C4A5A6615
:101518000122FB689A407B689A6622E07B681B6818
:10152800DBB2103B174AA2FB03231B09FB60BB6815
:10153800154A934206D8BB68144A934202D9FB68FD
:101548000833FB60FA68124B13449B001A467B6809
:101558001A667B680F4A5A660122FB689A407B68C4
:101568009A6600BF1437BD465DF8047B704700BF1C
:101578009454025807540258CDCCCCCC009600168F
:1015880080580258ABAAAAAAB80402400F04024025
:10159800008200108008024080B485B000AF7860F7
:1015A8007B681B68FB607B685B68DBB2BB60BB6801
:1015B800002B25D0BB68082B22D8FB68134A93421E
:1015C8000ED8FB68124A93420AD9BA68114B1344E1
:1015D8009B001A467B68DA667B680F4A1A6709E03F
:1015E800BA680E4B13449B001A467B68DA667B6820
:1015F8000B4A1A67BB68013B01229A407B685A670D
:1016080000BF1437BD465DF8047B704794540258F8
:10161800075402583F960016405902583F8200105E
:101628004009024080B584B000AF78600023FB60B9
:101638007B68002B01D101239EE17B681B68754AFA
:10164800934206D17B681B6803F580731A467B6852
:101658005A607B6893F89430DBB2002B06D17B6824
:10166800002283F8952078680AF088F97B681B685F
:101678007A681268926922F010029A61FFF706F8F8
:10168800F86014E0FFF702F80246FB68D31A0A2B49
:101698000DD97B68D3F8983043F001027B68C3F812
:1016A80098207B68032283F89420012364E17B68F7
:1016B8001B689B6903F00803082BE3D07B681B6851
:1016C8007A681268926942F001029A61FEF7DEFFB9
:1016D800F86014E0FEF7DAFF0246FB68D31A0A2B1B
:1016E8000DD97B68D3F8983043F001027B68C3F8C2
:1016F80098207B68032283F8942001233CE17B68CF
:101708001B689B6903F00103002BE3D07B681B680F
:101718007A681268926942F002029A617B681B7CBF
:10172800012B08D17B681B687A681268926922F0DD
:1017380040029A6107E07B681B687A6812689269C0
:1017480042F040029A617B685B7C012B08D17B6880
:101758001B687A681268926942F480429A6107E0CD
:101768007B681B687A681268926922F480429A61E1
:101778007B689B7C012B08D17B681B687A681268A0
:10178800926922F480529A6107E07B681B687A6844
:101798001268926942F480529A617B681B687A6881
:1017A8001268926922F440717A6892680A439A61D1
:1017B8007B68DB68012B08D17B681B687A68126834
:1017C800926942F004029A612EE07B68DB68002B84
:1017D8002AD07B68DB68022B1ED07B681B687A687E
:1017E8001268926942F080029A617B681B687A6885
:1017F8001268126942F010021A617B68DB68032BD9
:1018080012D17B681B687A681268926942F02002DC
:101818009A6109E000A000407B681B687A6812683A
:10182800926942F020029A617B681B687A68926923
:10183800013A51067A68D269013A120211437A686C
:10184800126A013A11437A685269013A12040A434A
:10185800DA617B689B68B3F5407F14D17B681B68AD
:101868007A68926A511E7A68D26A013A1202114362
:101878007A68126B013A120111437A68526A013A86
:1018880012040A43DA607B681B6E002B0AD07B685F
:101898001B687A681268D2F8C0107A68526E0A43D8
:1018A800C3F8C0207B68DA6D7B681B6E1344002B7D
:1018B8000ED07B681B687A681268D2F8C82022F0BC
:1018C80007027968896E2E48415C0A43C3F8C8202C
:1018D8007B681B6C002B0ED07B681B687A681268CB
:1018E800D2F8BC2022F007027968496C2448415C90
:1018F8000A43C3F8BC207B689B6C002B0FD07B6825
:101908001B687A681268D2F8BC2022F070027968E5
:10191800C96C1B48415C09010A43C3F8BC207B68B9
:101928001B6D002B0FD07B681B687A681268D2F891
:10193800BC2022F4E0627968496D1148415C0902D3
:101948000A43C3F8BC207B681B680E4A934207D140
:101958007B685B687A685268926822F003029A6032
:10196800786800F0DFF87B680022C3F898207B686D
:10197800012283F89420002318461037BD4680BD05
:101988007CDD000800A0004080B487B000AF78601C
:1019980039607B6893F89430DBB2012B05D07B6803
:1019A80093F89430DBB2022B56D13B681B68002BAE
:1019B8002BD13B68DB68072B0DD13B681B691A04E8
:1019C8003B68DB691B021A433B689B69134343F07E
:1019D80060537B610EE03B689B689A073B68DB6855
:1019E800DB061A433B681B691B041A433B685B69A7
:1019F80013437B617B68DA6E3B685B689B0013442A
:101A0800FB60FB687A691A6024E03B68DB685A0768
:101A18003B681B6913437B613B68DB68072B03D179
:101A28003B689B693B6106E03B689B689A073B689B
:101A38005B6913433B617B681A6F3B685B68DB003B
:101A48001344FB60FB681A1DFA607A691A60FB6828
:101A58003A691A60002308E07B68D3F8983043F0AD
:101A680002027B68C3F89820012318461C37BD463C
:101A78005DF8047B704780B485B000AFF860B9604A
:101A88007A603B60FB6893F89430DBB2012B0FD18E
:101A9800FB681B68BA6811017A68920011433A68BA
:101AA80052001143BA690A43C3F88020002308E0B2
:101AB800FB68D3F8983043F00402FB68C3F8982019
:101AC800012318461437BD465DF8047B704780B47F
:101AD80083B000AF78607B6893F89430DBB2012B59
:101AE80011D17B68022283F894207B681B687A688E
:101AF8001268926922F001029A617B680022C3F899
:101B08009820002308E07B68D3F8983043F004025B
:101B18007B68C3F89820012318460C37BD465DF84A
:101B2800047B704780B485B000AF78607B685A6BDF
:101B38007B68DA667B681A687B681B68D3F8841050
:101B4800A74B0B407968C96E89000B43C2F88430F3
:101B58007B681B687A681268D2F8842022F47F01B7
:101B68007A68926B12040A43C3F884207B68DA6EA1
:101B78007B689B6B1A447B681A677B681A687B686A
:101B88001B68D3F88810964B0B407968096F890059
:101B98000B43C2F888307B681B687A681268D2F8F1
:101BA800882022F47F017A68D26B12040A43C3F8B2
:101BB80088207B681A6F7B68DB6B5B001A447B6844
:101BC8005A677B681A687B681B68D3F8A010844B37
:101BD8000B407968496F89000B43C2F8A0307B68D5
:101BE8001B687A681268D2F8A02022F4FE017A688D
:101BF800126C12040A43C3F8A0207B685A6F7B68F2
:101C08001B6C7968496C01FB03F31A447B689A677B
:101C18007B681B687A681268D2F8B02022F0FC0151
:101C28007A68926F92000A43C3F8B0207B681B68F9
:101C38007A681268D2F8B02022F4FE017A68926CB1
:101C480012040A43C3F8B0207B689A6F7B689B6CC8
:101C58007968C96C01FB03F31A447B68DA677B680F
:101C68001B687A681268D2F8AC2022F0FC017A6806
:101C7800D26F92000A43C3F8AC207B68DA6F7B68A6
:101C88001B6D7968496D01FB03F31A447B68C3F83F
:101C980080207B681A687B681B68D3F8F010504B6B
:101CA8000B407968D1F8801089000B43C2F8F030F6
:101CB8007B681B687A681268D2F8F02022F47C11DD
:101CC8007A68926D12040A43C3F8F0207B68D3F84F
:101CD80080207B689B6D5B001A447B68C3F8842076
:101CE8007B681B687A681268D2F8C02022F0FC0171
:101CF8007A68D2F8842092000A43C3F8C0207B682F
:101D08001B687A681268D2F8C02022F47C117A68BD
:101D1800D26D12040A43C3F8C0207B68D3F884202C
:101D28007B68DB6D7968896E01FB03F31A447B6875
:101D3800C3F888207B681B687A681268D2F8C020CC
:101D480022F07C517A68126E12060A43C3F8C0204A
:101D58007B685A6B234B13449A007B68DA667B686E
:101D6800DA6E7B689B6B9B001A447B681A677B68FA
:101D78001A6F7B68DB6BDB001A447B685A677B68E9
:101D88005A6F7B681B6C7968496C01FB03F39B00F5
:101D98001A447B689A677B689A6F7B689B6C796842
:101DA800C96C01FB03F39B001A447B68DA677B6804
:101DB800DA6F7B681B6D7968496D01FB03F39B0043
:101DC8001A447B68C3F880207B68D3F880207B683E
:101DD8009B6DDB001A447B68C3F884207B6803E0B2
:101DE8000300FFFF002B0010D3F884207B68DB6D15
:101DF8007968896E01FB03F39B001A447B68C3F87A
:101E080088207B68D3F888207B681B6E7968896E88
:101E180001FB03F39B001A447B68C3F890207B689E
:101E2800D3F89030114A934209D97B68D3F8983097
:101E380043F020027B68C3F89820012310E07B68F8
:101E4800DB6EFB6005E0FB6800221A60FB68043368
:101E5800FB607B68D3F89020FB689A42F3D8002394
:101E680018461437BD465DF8047B7047FCB5004042
:101E780080B489B000AF786039600023FB6100232B
:101E88007B6100233B610023BB618B4BFB6000231C
:101E9800FB6196E10122FB6902FA03F37B613B686F
:101EA8001A687B6913403B613A697B699A4240F042
:101EB80085813B685B68022B03D03B685B68122B0B
:101EC80023D1FB69DA087B68083253F82230BB61FA
:101ED800FB6903F007039B000F2202FA03F3DB43BD
:101EE800BA691340BB613B681A69FB6903F00703D1
:101EF8009B0002FA03F3BA691343BB61FB69DA0872
:101F08007B680832B96943F822107B681B68BB619B
:101F1800FB695B00032202FA03F3DB43BA6913404F
:101F2800BB613B685B6803F00302FB695B0002FA74
:101F380003F3BA691343BB617B68BA691A603B68EB
:101F48005B68012B0BD03B685B68022B07D03B68B2
:101F58005B68112B03D03B685B68122B30D17B6820
:101F68009B68BB61FB695B00032202FA03F3DB4356
:101F7800BA691340BB613B68DA68FB695B0002FA27
:101F880003F3BA691343BB617B68BA699A607B68DB
:101F98005B68BB610122FB6902FA03F3DB43BA69A0
:101FA8001340BB613B685B681B0903F00102FB69D6
:101FB80002FA03F3BA691343BB617B68BA695A60D2
:101FC8007B68DB68BB61FB695B00032202FA03F3F1
:101FD800DB43BA691340BB613B689A68FB695B00E5
:101FE80002FA03F3BA691343BB617B68BA69DA6022
:101FF8003B685B6803F08053002B00F0DF802F4ABA
:102008002E4BD3F8F43043F00203C2F8F4302B4BD4
:10201800D3F8F43003F00203BB60BB68284AFB69BD
:102028009B08023352F82330BB61FB6903F00303BA
:102038009B000F2202FA03F3DB43BA691340BB612A
:102048007B68204A934251D07B681F4A934231D023
:102058007B681E4A93422BD07B681D4A934225D049
:102068007B681C4A93421FD07B681B4A934219D055
:102078007B681A4A934213D07B68194A93420DD061
:102088007B68184A934207D07B68174A934201D16C
:1020980009232CE00A232AE0082328E0072326E066
:1020A800062324E0052322E0042320E003231EE086
:1020B80002231CE001231AE0800000580044025863
:1020C8000004005800000258000402580008025892
:1020D800000C025800100258001402580018025848
:1020E800001C025800200258002402580023FA69F4
:1020F80002F0030292009340BA691343BB61364968
:10210800FB699B080233BA6941F82320FB681B6806
:10211800BB613B69DB43BA691340BB613B685B68E1
:1021280003F48033002B03D0BA693B691343BB61C6
:10213800FB68BA691A60FB685B68BB613B69DB4393
:10214800BA691340BB613B685B6803F40033002B3A
:1021580003D0BA693B691343BB61FB68BA695A602B
:102168004FF0B0431B68BB613B69DB43BA6913405E
:10217800BB613B685B6803F48013002B03D0BA692A
:102188003B691343BB614FF0B042BB6913604FF02A
:10219800B0435B68BB613B69DB43BA691340BB6111
:1021A8003B685B6803F40013002B03D0BA693B69F2
:1021B8001343BB614FF0B042BB695360FB69013305
:1021C800FB61FB690F2B7FF665AE00BF2437BD4668
:1021D8005DF8047B704700BF0004005880B483B0EA
:1021E80000AF78600B467B8013467B707B78002BB2
:1021F80003D07B687A881A8302E07B687A885A83DE
:1022080000BF0C37BD465DF8047B704780B485B0CD
:1022180000AF78600D4A0D4BD3F8F43043F0020359
:10222800C2F8F430094BD3F8F43003F00203FB6032
:10223800FB680749064B5A687B6813434B6000BF2D
:102248001437BD465DF8047B704700BF0044025850
:1022580000040058F0B58FB00AAF78600023FB6027
:102268007B68002B01D1012305E17B68032283F8F9
:10227800B923786809F04CFE7B681B68184606F09D
:1022880060FA7B681B683B607E686D4606F1100447
:102298000FCC0FC50FCC0FC594E8030085E80300E9
:1022A800331D0ECB386806F0E9F97B681B680021FE
:1022B800184606F057FA0023FB604CE07968FA6884
:1022C8001346DB009B1A9B000B44393301221A701A
:1022D800FB68D8B27968FA681346DB009B1A9B0042
:1022E8000B44383302461A70FB6898B27968FA686A
:1022F8001346DB009B1A9B000B443E3302461A80B0
:102308007968FA681346DB009B1A9B000B443B3341
:1023180000221A707968FA681346DB009B1A9B0042
:102328000B44403300221A607968FA681346DB00D0
:102338009B1A9B000B44443300221A607968FA68A0
:102348001346DB009B1A9B000B444C3300221A6097
:10235800FB680133FB60FB680E2BAFD90023FB60E1
:102368005AE07968FA681346DB009B1A9B000B4415
:1023780003F2F91300221A70FB68D8B27968FA6878
:102388001346DB009B1A9B000B4403F5FC730246C3
:102398001A70FB6898B27968FA681346DB009B1AD2
:1023A8009B000B443E3302461A807968FA6813464C
:1023B800DB009B1A9B000B4403F2FB1300221A70EC
:1023C8007968FA681346DB009B1A9B000B4403F5F7
:1023D800007300221A607968FA681346DB009B1ABA
:1023E8009B000B4403F5017300221A607968FA68B0
:1023F8001346DB009B1A9B000B4403F50373002272
:102408001A607B681A68FB6840339B0013440022FB
:102418005A60FB680133FB60FB680E2BA1D97B680F
:102428001B683B607E686D4606F110040FCC0FC533
:102438000FCC0FC594E8030085E80300331D0ECBCD
:10244800386806F0B7F97B68012283F8B9237B68FE
:102458009B6A012B02D1786801F02CF87B685B6AD3
:10246800012B02D1786801F049F87B681B6818468F
:1024780007F095F9002318461437BD46F0BD80B51E
:1024880082B000AF78607B681B68184607F070F967
:102498007B681B68184606F043F90023184608377E
:1024A800BD4680BD80B58CB000AF78607B681B6886
:1024B8003B620023FB620023BB620023FB61002315
:1024C8007B620023BB6100237B6100233B619D4B42
:1024D800FB607B681B68184607F003FA0346002B6D
:1024E80040F0CB847B681B68184607F06FF90346F9
:1024F800002B00F0C1847B681B68184607F066F95A
:10250800034603F00203022B03D17B681B680222F7
:102518005A617B681B68184607F058F9034603F4AC
:102528000023B3F5002F40F0F78000237B627B681F
:102538001B68184607F05FF9B862E9E0BB6A03F068
:102548000103002B00F0DE807B681B687A6AD2B238
:102558001146184607F07FF9F861FB6903F001039B
:10256800002B00F087807B6A5A013B6A134403F50D
:1025780030631A46012393603B6A1B6C724A93428C
:1025880015D97B681B69012B11D13B6A03F53063B0
:102598009B6803F40043002B09D07B6A5A013B6A0D
:1025A800134403F530631A464FF4004393607B6885
:1025B8001B69012B3CD179687A6A1346DB009B1AA8
:1025C8009B000B4403F500731A687B6A59013B6A48
:1025D8000B4403F530631B69C3F31203D11A7868FF
:1025E8007A6A1346DB009B1A9B00034403F50473C5
:1025F800196079687A6A1346DB009B1A9B000B44C2
:1026080003F50173196878687A6A1346DB009B1A28
:102618009B00034403F500731B68194478687A6AC1
:102628001346DB009B1A9B00034403F501731960F2
:102638007B6ADBB21946786809F0B8FC7B681B69CD
:10264800012B17D17B6A002B14D179687A6A13465B
:10265800DB009B1A9B000B4403F503731B68002BDC
:1026680008D17B6818687B6803F56F731A460121E7
:1026780007F07CF9FB6903F00803002B26D03B6ABE
:102688001B6C314A934215D97B681B69012B11D108
:102698003B6A03F530639B6803F40043002B09D0C1
:1026A8007B6A5A013B6A134403F530631A464FF4B8
:1026B80000439360786809F067FC7B6A5A013B6ABB
:1026C800134403F530631A4608239360FB6903F04B
:1026D8001003002B08D07B6A5A013B6A134403F5A8
:1026E80030631A4610239360FB6903F02003002B24
:1026F80008D07B6A5A013B6A134403F530631A46D3
:10270800202393607B6A01337B62BB6A5B08BB62F0
:10271800BB6A002B7FF412AF7B681B68184607F072
:1027280055F8034603F48023B3F5802F40F0C880A2
:102738007B681B68184607F076F8B86200237B624E
:10274800BAE000BF0084D7170931544FBB6A03F0C1
:102758000103002B00F0AA807B681B687A6AD2B25A
:102768001146184607F093F8F861FB6903F0010376
:10277800002B5AD001227B6A02FA03F3BB613B6A41
:1027880003F5006319463B6A03F500635A6BBB699E
:10279800DB4313404B637B6A5A013B6A134403F5DE
:1027A80010631A46012393607B681B69012B1BD1B8
:1027B80079687A6A1346DB009B1A9B000B44443302
:1027C800196878687A6A1346DB009B1A9B000344F1
:1027D80040331B68194478687A6A1346DB009B1AF1
:1027E8009B000344443319607B6ADBB2194678685E
:1027F80009F0F7FB7B681B69012B16D17B6A002B5C
:1028080013D179687A6A1346DB009B1A9B000B4444
:102818004C331B68002B08D17B6818687B6803F56C
:102828006F731A46012107F0A1F8FB6903F008034A
:10283800002B08D07B6A5A013B6A134403F51063E6
:102848001A4608239360FB6903F01003002B08D095
:102858007B6A5A013B6A134403F510631A46102336
:102868009360FB6903F04003002B08D07B6A5A0190
:102878003B6A134403F510631A4640239360FB69CF
:1028880003F00203002B08D07B6A5A013B6A134409
:1028980003F510631A4602239360FB6903F0800373
:1028A800002B03D0796A786800F01BFD7B6A01333E
:1028B8007B62BB6A5B08BB62BB6A002B7FF446AFD6
:1028C8007B681B68184606F081FF034603F0004347
:1028D800B3F1004F20D13B6A03F500631A463B6A07
:1028E80003F500635B6823F0010353607B6893F88A
:1028F800EC33012B08D17B68002283F8EC230021FC
:10290800786800F019FE02E0786809F0E3FB7B685C
:102918001B684FF000425A617B681B68184606F036
:1029280055FF034603F40063B3F5006F0FD13B6A0C
:1029380003F500639B6803F00103012B02D178685B
:1029480009F0A0FB7B681B684FF400625A617B6842
:102958001B68184606F03AFF034603F00063B3F11C
:10296800006F1ED17B681B684FF000625A617B685C
:1029780093F8EC33002B11D17B68012283F8EC2308
:102988007B681B685B6D9B0803F00F027B68C3F8CC
:10299800F0230121786800F0CFFD02E0786809F0A3
:1029A80071FB7B681B68184606F010FF034603F4AA
:1029B8008053B3F5805F40F08E803B6A03F5006377
:1029C8001A463B6A03F500635B6823F00103536012
:1029D8007B681B681021184606F02AF80023FB6262
:1029E80014E0FB6A5A013B6A134403F510631A4664
:1029F800FF239360FB6A5A013B6A134403F5306373
:102A08001A46FF239360FB6A0133FB627B685A68AE
:102A1800FB6A9A42E5D83B6A03F500631A464FF011
:102A2800FF3393613B6A03F500631A463B6A03F57B
:102A38000063DB6943F00113D3617B681B6B002BD8
:102A480018D03B6A03F500631A463B6A03F5006336
:102A5800D3F8843043F00B03C2F884303B6A03F5A3
:102A680000631A463B6A03F500635B6C43F00B0393
:102A7800536415E03B6A03F500631A463B6A03F5A5
:102A880000635B6943F00B0353613B6A03F5006322
:102A98001A463B6A03F500631B6943F00B03136195
:102AA8003B6A03F500631A463B6A03F500631B683B
:102AB80023F4FE6313607B6818687B681B69D9B2CE
:102AC8007B6803F56F731A4606F050FF7B681B6836
:102AD8004FF480525A617B681B68184606F076FEF0
:102AE800034603F40053B3F5005F40F0D7807B68DA
:102AF8001B68184606F004FF7B681B687A68126832
:102B0800D26822F47052DA607B681B68184605F0B8
:102B1800EFFF0346002B0FD17B680022DA607B6849
:102B28004FF400725A617B681B687A681268D26831
:102B380042F41052DA60A9E07B680322DA607B680D
:102B480040225A6101F068FBF860FB68794A9342B9
:102B58000CD9FB68784A934208D87B681B687A6866
:102B68001268D26842F47052DA608FE0FB68724AE9
:102B780093420CD9FB68714A934208D87B681B685A
:102B88007A681268D26842F46052DA607EE0FB68C4
:102B98006A4A93420CD9FB68694A934208D87B6811
:102BA8001B687A681268D26842F45052DA606DE0A5
:102BB800FB68634A93420CD9FB68624A934208D87F
:102BC8007B681B687A681268D26842F44052DA60FF
:102BD8005CE0FB685B4A93420CD9FB685A4A934213
:102BE80008D87B681B687A681268D26842F4305249
:102BF800DA604BE0FB68544A93420CD9FB68534AAD
:102C0800934208D87B681B687A681268D26842F4D5
:102C18002052DA603AE0FB684C4A93420CD9FB68D0
:102C28004B4A934208D87B681B687A681268D26856
:102C380042F41052DA6029E0FB68454A93420CD905
:102C4800FB68444A934208D87B681B687A68126814
:102C5800D26842F40052DA6018E0FB683D4A9342B9
:102C68000CD9FB683C4A934208D87B681B687A6891
:102C78001268D26842F4E052DA6007E07B681B68A9
:102C88007A681268D26842F4C052DA60786809F04B
:102C9800D0F97B681B684FF400525A617B681B6847
:102CA800184606F093FD034603F01003102B74D169
:102CB8007B681B687A681268926922F010029A6130
:102CC8003B6A1B6A7B617B6903F00F021346DB00DA
:102CD8009B1A9B0003F5FC737A6813443B617B697C
:102CE8005B0C03F00F03022B38D17A6947F6F073B7
:102CF8001340002B49D03B69D9687B691B099BB2FB
:102D0800C3F30A039BB21A46386A06F003FC3B6910
:102D1800DA687B691B09C3F30A031A443B69DA6062
:102D28003B699A697B691B09C3F30A031A443B6927
:102D38009A612AE0BFACD800BFE1E400FF23F400A9
:102D48007F7306019F491A01FF2C31013FA44C01F2
:102D5800FF356E011FABA601FF47E8017B695B0CDD
:102D680003F00F03062B10D17B6803F56F7308225D
:102D78001946386A06F0CEFB3B699A697B691B09DC
:102D8800C3F30A031A443B699A617B681B687A6833
:102D98001268926942F010029A617B681B681846B3
:102DA80006F014FD034603F00803082B06D17868E3
:102DB80009F031F97B681B6808225A617B681B6837
:102DC800184606F003FD034603F48013B3F5801F8D
:102DD8000AD17B6ADBB21946786809F09BF97B68EF
:102DE8001B684FF480125A617B681B68184606F00E
:102DF800EDFC034603F40013B3F5001F0AD17B6A08
:102E0800DBB21946786809F073F97B681B684FF4E0
:102E180000125A617B681B68184606F0D7FC034607
:102E280003F08043B3F1804F07D1786809F084F943
:102E38007B681B684FF080425A617B681B681846A4
:102E480006F0C4FC034603F00403042B15D17B6889
:102E58001B685B687B617B6903F00403002B02D06D
:102E6800786809F077F97B681B687A681268516896
:102E78007A690A435A6000E000BF3037BD4680BD1A
:102E880080B582B000AF78600B46FB707B6893F822
:102E9800B833012B01D102230FE07B68012283F8AC
:102EA800B8237B681B68FA781146184606F03AFC86
:102EB8007B68002283F8B823002318460837BD46EC
:102EC80080BD80B584B000AF7860084611461A46C8
:102ED8000346FB700B463B801346BB700023FB7216
:102EE8000023FB6097F90330002B0BDAFB7803F023
:102EF8007F021346DB009B1A9B0038337A68134421
:102F0800FB600BE0FB7803F07F021346DB009B1AA3
:102F18009B0003F5FC737A681344FB60FB7803F0AD
:102F28007F03DAB2FB681A7097F90330DBB2DB096A
:102F3800DBB21A46FB685A703A88FB689A60FB68ED
:102F4800BA78DA70FB685B78002B04D0FB681B78D2
:102F58009AB2FB68DA80BB78022B02D1FB680022A8
:102F68001A717B6893F8B833012B01D102230EE064
:102F78007B68012283F8B8237B681B68F9681846C8
:102F880005F0ECFD7B68002283F8B823FB7A18462D
:102F98001037BD4680BD80B584B000AF78600B4661
:102FA800FB700023FB6097F90330002B0BDAFB78EA
:102FB80003F07F021346DB009B1A9B0038337A68C4
:102FC8001344FB600BE0FB7803F07F021346DB0041
:102FD8009B1A9B0003F5FC737A681344FB60FB782B
:102FE80003F07F03DAB2FB681A7097F90330DBB29B
:102FF800DB09DBB21A46FB685A707B6893F8B83372
:10300800012B01D102230EE07B68012283F8B8234B
:103018007B681B68F968184605F028FE7B68002263
:1030280083F8B823002318461037BD4680BD80B505
:1030380086B000AFF8607A603B600B46FB720023F5
:103048007B61FB7A03F07F021346DB009B1A9B002F
:1030580003F5FC73FA6813447B617B697A68DA606C
:103068007B693A685A617B6900229A617B69002210
:103078005A70FB7A03F07F03DAB27B691A70FB6837
:103088001B69012B02D17A687B691A61FB7A03F00C
:103098007F03002B09D1FB681868FB681B69DBB24A
:1030A8001A46796906F0A2F808E0FB681868FB6818
:1030B8001B69DBB21A46796905F054FE00231846ED
:1030C8001837BD4680BD80B483B000AF78600B462A
:1030D800FB70FB7803F00F0279681346DB009B1A3C
:1030E8009B000B4403F504731B689BB218460C370E
:1030F800BD465DF8047B704780B586B000AFF860C8
:103108007A603B600B46FB7200237B61FB7A03F01D
:103118007F021346DB009B1A9B003833FA6813447E
:103128007B617B697A68DA607B693A685A617B6996
:1031380000229A617B6901225A70FB7A03F07F03AF
:10314800DAB27B691A70FB681B69012B02D17A68B5
:103158007B691A61FB7A03F07F03002B09D1FB68B6
:103168001868FB681B69DBB21A46796906F03EF8F5
:1031780008E0FB681868FB681B69DBB21A467969C6
:1031880005F0F0FD002318461837BD4680BD80B510
:1031980084B000AF78600B46FB700023FB6097F9A2
:1031A8000330002B0BDAFB7803F07F021346DB00B9
:1031B8009B1A9B0038337A681344FB6009E0FA785D
:1031C8001346DB009B1A9B0003F5FC737A681344D3
:1031D800FB60FB6801229A70FB7803F07F03DAB288
:1031E800FB681A7097F90330DBB2DB09DBB21A46C9
:1031F800FB685A707B6893F8B833012B01D102231E
:103208001EE07B68012283F8B8237B681B68F96895
:10321800184606F0A9F9FB7803F07F03002B0AD1C2
:103228007B6818687B681B69D9B27B6803F56F7384
:103238001A4606F09BFB7B68002283F8B82300231C
:1032480018461037BD4680BD80B584B000AF7860A1
:103258000B46FB700023FB6097F90330002B0BDA59
:10326800FB7803F07F021346DB009B1A9B00383380
:103278007A681344FB6009E0FA781346DB009B1A6E
:103288009B0003F5FC737A681344FB60FB6800221B
:103298009A70FB7803F07F03DAB2FB681A7097F92B
:1032A8000330DBB2DB09DBB21A46FB685A707B6875
:1032B80093F8B833012B01D102230EE07B68012279
:1032C80083F8B8237B681B68F968184606F0BDF9CF
:1032D8007B68002283F8B823002318461037BD46C0
:1032E80080BD80B58AB002AF786039607B681B68A2
:1032F8007B6100233B610023FB610023BB6100234A
:10330800FB603A681346DB009B1A9B0038337A68E7
:1033180013443B613B695A693B699B69D31AFB615A
:103328003B699A68FB699A4202D23B699B68FB61D8
:10333800FB690333002B00DA03339B10BB612EE0DB
:103348003B695A693B699B69D31AFB613B699A6877
:10335800FB699A4202D23B699B68FB61FB690333B4
:10336800002B00DA03339B10BB613B69D9683B68CB
:10337800DAB2FB6998B27B681B69DBB2009303463B
:10338800786906F08FF83B69DA68FB691A443B698B
:10339800DA603B699A69FB691A443B699A613B6840
:1033A8005A017B69134403F510639B699AB2BB69A0
:1033B8009A4209D93B699A693B695B699A4203D287
:1033C8003B695B69002BBBD1FB69002B10DC012238
:1033D8003B6802FA03F3FB607B6903F50063194657
:1033E8007B6903F500635A6BFB68DB4313404B634F
:1033F800002318462037BD4680BD80B485B000AF95
:1034080078600B46FB7013463B800023FB73002358
:10341800BB607B681B685B6ABB60FB78002B07D1CD
:103428007B681B683A881104BA680A439A6228E0E4
:103438007B681B689B6A1B0CBA681344BB6000233B
:10344800FB730DE07B681A68FB7B40339B001344D9
:103458005B681B0CBA681344BB60FB7B0133FB73CE
:10346800FA7BFB78013B9A42ECDB7B681968FB78B6
:10347800013B3A881004BA68024340339B000B446E
:103488005A60002318461437BD465DF8047B704720
:1034980080B483B000AF78600B467B807B681B6884
:1034A8007A885A62002318460C37BD465DF8047BBB
:1034B8007047000080B485B000AF78607B681B68F7
:1034C800FB607B680122C3F8F4237B68002283F841
:1034D800EC23FB689B6943F00062FB689A61FB6818
:1034E8005A6D054B1343FA68536500231846143781
:1034F800BD465DF8047B70470300001080B485B0BA
:1035080000AF78607B681B68FB607B680122C3F8AA
:10351800F823FB689B6B43F40032FB689A63FB68F3
:103528009B6B43F48022FB689A6300231846143788
:10353800BD465DF8047B704780B483B000AF786007
:103548000B46FB7000BF0C37BD465DF8047B704727
:1035580080B400AF054A054BDB6843F08073D36045
:1035680000BFBD465DF8047B704700BF00480258A5
:1035780080B58EB000AF786000237B637B681B68E2
:1035880003F00103002B00F08680934B1B6903F0C6
:103598003803102B0BD0904B1B6903F03803182B02
:1035A80011D18D4B9B6A03F00303022B0BD18A4B7D
:1035B8001B6803F40033002B6CD07B685B68002B1E
:1035C80068D1012364E37B685B68B3F5803F06D16B
:1035D800814A814B1B6843F4803313602EE07B687B
:1035E8005B68002B0CD17C4A7B4B1B6823F480332F
:1035F8001360794A784B1B6823F4802313601DE01D
:103608007B685B68B3F5A02F0CD1734A724B1B68BB
:1036180043F480231360704A6F4B1B6843F4803374
:1036280013600BE06C4A6C4B1B6823F48033136007
:10363800694A694B1B6823F4802313607B685B68C5
:10364800002B13D0FDF722F8786308E0FDF71EF889
:1036580002467B6BD31A642B01D9032318E35E4B14
:103668001B6803F40033002BF0D014E0FDF70EF8CC
:10367800786308E0FDF70AF802467B6BD31A642BDF
:1036880001D9032304E3544B1B6803F40033002BD4
:10369800F0D100E000BF7B681B6803F00203002B39
:1036A80000F0A2804C4B1B6903F03803002B0BD0B1
:1036B800494B1B6903F03803182B43D1464B9B6ACF
:1036C80003F00303002B3DD1434B1B6803F00403B5
:1036D800002B05D07B68DB68002B01D10123D7E2E2
:1036E8003D493D4B1B6823F019027B68DB68134397
:1036F8000B60FCF7CBFF786308E0FCF7C7FF0246D6
:103708007B6BD31A022B01D90323C1E2324B1B680E
:1037180003F00403002BF0D02F482F4B5B6823F4F1
:103728007C327B6819694FF47C333B633B6B93FABB
:10373800A3F3FB62FB6AB3FA83F301FA03F31343BF
:10374800436051E07B68DB68002B31D02249224B73
:103758001B6823F019027B68DB6813430B60FCF7D6
:1037680095FF786308E0FCF791FF02467B6BD31A5C
:10377800022B01D903238BE2174B1B6803F00403C8
:10378800002BF0D01448144B5B6823F47C327B6820
:1037980019694FF47C33BB62BB6A93FAA3F37B626B
:1037A8007B6AB3FA83F301FA03F3134343601BE024
:1037B800094A094B1B6823F001031360FCF766FFF5
:1037C80078630BE0FCF762FF02467B6BD31A022B8F
:1037D80004D903235CE200BF00440258A04B1B68D5
:1037E80003F00403002BEDD17B681B6803F0100382
:1037F800002B7FD09A4B1B6903F03803082B0BD0A2
:10380800974B1B6903F03803182B27D1944B9B6AFD
:1038180003F00303012B21D1914B1B6803F4807340
:10382800002B05D07B68DB69802B01D001232FE2B8
:103838008B488B4B5B6823F0F8427B68196A4FF022
:10384800F8433B623B6A93FAA3F3FB61FB69B3FA63
:1038580083F301FA03F3134343604BE07B68DB69AE
:10386800002B2ED07E4A7E4B1B6843F080031360EA
:10387800FCF70CFF786308E0FCF708FF02467B6B57
:10388800D31A022B01D9032302E2754B1B6803F4F8
:103898008073002BF0D07248714B5B6823F0F842BC
:1038A8007B68196A4FF0F843BB61BB6993FAA3F3CD
:1038B8007B617B69B3FA83F301FA03F31343436033
:1038C80018E0674A664B1B6823F080031360FCF717
:1038D800DDFE786308E0FCF7D9FE02467B6BD31A5D
:1038E800022B01D90323D3E15D4B1B6803F48073DA
:1038F800002BF0D17B681B6803F00803002B36D03F
:103908007B685B69002B19D0554A554B5B6F43F0B8
:1039180001035367FCF7BAFE786308E0FCF7B6FECC
:1039280002467B6BD31A022B01D90323B0E14C4B1F
:103938005B6F03F00203002BF0D018E0484A484BB5
:103948005B6F23F001035367FCF7A0FE786308E080
:10395800FCF79CFE02467B6BD31A022B01D903238A
:1039680096E13F4B5B6F03F00203002BF0D17B68BD
:103978001B6803F02003002B36D07B689B69002B63
:1039880019D0374A364B1B6843F480531360FCF751
:103998007DFE786308E0FCF779FE02467B6BD31A5C
:1039A800022B01D9032373E12D4B1B6803F4005349
:1039B800002BF0D018E02A4A294B1B6823F48053C7
:1039C8001360FCF763FE786308E0FCF75FFE0246CD
:1039D8007B6BD31A022B01D9032359E1204B1B68B7
:1039E80003F40053002BF0D17B681B6803F0040339
:1039F800002B00F085801B4A1A4B1B6843F4807328
:103A08001360FCF743FE786308E0FCF73FFE0246CC
:103A18007B6BD31A642B01D9032339E1114B1B6843
:103A280003F48073002BF0D07B689B68012B06D1D0
:103A38000B4A0B4B1B6F43F00103136731E07B68A4
:103A48009B68002B10D1064A054B1B6F23F001031E
:103A58001367034A024B1B6F23F00403136720E02C
:103A680000440258004802587B689B68052B0CD11B
:103A7800894A894B1B6F43F004031367864A864BB8
:103A88001B6F43F0010313670BE0834A824B1B6FE4
:103A980023F001031367804A7F4B1B6F23F0040355
:103AA80013677B689B68002B15D0FCF7EFFD7863E4
:103AB8000AE0FCF7EBFD02467B6BD31A41F2883231
:103AC800934201D90323E3E0734B1B6F03F0020316
:103AD800002BEED014E0FCF7D9FD78630AE0FCF780
:103AE800D5FD02467B6BD31A41F28832934201D945
:103AF8000323CDE0684B1B6F03F00203002BEED1CC
:103B08007B685B6A002B00F0C280634B1B6903F083
:103B18003803182B00F0B9807B685B6A022B40F0F1
:103B28009A805D4A5C4B1B6823F080731360FCF736
:103B3800ADFD786308E0FCF7A9FD02467B6BD31A5C
:103B4800022B01D90323A3E0534B1B6803F0007336
:103B5800002BF0D15048504B9A6A504B13407A686A
:103B6800916A7A68D26A12010A43134383624A4906
:103B78007B681B6B013BC3F308027B685B6B013BF3
:103B88005B029BB21A437B689B6B013B1B0403F4EB
:103B9800FE031A437B68DB6B013B1B0603F0FE4305
:103BA80013430B633C483C4B5A6B3D4B13407A68BC
:103BB800916C4FF6F8723A613A6992FAA2F2FA6099
:103BC800FA68B2FA82F201FA02F213434363324905
:103BD800314BDB6A23F00C027B681B6C1343CB620E
:103BE8002D492D4BDB6A23F002027B685B6C134383
:103BF800CB62294A284BDB6A43F48033D362264AD6
:103C0800254BDB6A43F40033D362234A224BDB6A39
:103C180043F48023D362204A1F4BDB6A43F001033D
:103C2800D3621D4A1C4B1B6843F080731360FCF77A
:103C38002DFD786308E0FCF729FD02467B6BD31A5B
:103C4800022B01D9032323E0134B1B6803F00073F5
:103C5800002BF0D01BE0104A0F4B1B6823F0807339
:103C68001360FCF713FD786308E0FCF70FFD0246CC
:103C78007B6BD31A022B01D9032309E0064B1B687F
:103C880003F00073002BF0D101E0012300E00023D2
:103C980018463837BD4680BD004402580CFCFFFF6B
:103CA8000700FFFF80B586B000AF78603960002359
:103CB8007B619D4B1B6803F007023B689A4210D258
:103CC8009949994B1B6823F007023B6813430B6023
:103CD800954B1B6803F007023B689A4201D0012309
:103CE8001DE17B681B6803F00203002B08D08F4995
:103CF8008E4B9B6923F00F027B68DB6813438B6153
:103D08007B681B6803F00103002B00F0978087494C
:103D1800864B9B6923F470627B689B6813438B61B5
:103D28007B685B68022B07D1804B1B6803F4003368
:103D3800002B21D10123F2E07B685B68032B07D1BC
:103D48007A4B1B6803F00073002B15D10123E6E0C2
:103D58007B685B68012B07D1744B1B6803F4807385
:103D6800002B09D10123DAE0704B1B6803F0040330
:103D7800002B01D10123D2E06C496C4B1B6923F065
:103D880007027B685B6813430B61FCF77FFC786173
:103D98007B685B68022B12D10AE0FCF777FC0246CD
:103DA8007B69D31A41F28832934201D90323B6E0E2
:103DB8005E4B1B6903F03803102BEED13EE07B68A5
:103DC8005B68032B12D10AE0FCF760FC02467B69B2
:103DD800D31A41F28832934201D903239FE0534B0F
:103DE8001B6903F03803182BEED127E07B685B686A
:103DF800012B1DD10AE0FCF749FC02467B69D31A66
:103E080041F28832934201D9032388E0474B1B696A
:103E180003F03803082BEED110E0FCF737FC02461C
:103E28007B69D31A41F28832934201D9032376E0A1
:103E38003E4B1B6903F03803002BEED13A4B1B684D
:103E480003F007023B689A4210D93749364B1B6882
:103E580023F007023B6813430B60334B1B6803F0E6
:103E680007023B689A4201D0012358E07B681B682F
:103E780003F00403002B08D02C492C4B9B6923F03A
:103E880070027B681B6913438B617B681B6803F0B6
:103E98000803002B08D02549244BDB6923F0700266
:103EA8007B685B691343CB617B681B6803F0100375
:103EB800002B08D01D491D4BDB6923F4E0627B68A9
:103EC8009B691343CB617B681B6803F02003002BBD
:103ED80008D01649154B1B6A23F070027B68DB6912
:103EE80013430B6200F028F80146104B9B6903F45A
:103EF80070624FF480733B613B6993FAA3F3FB60F4
:103F0800FB68B3FA83F322FA03F3094AD35C21FA74
:103F180003F3084A13600020FCF774FB00231846DB
:103F28001837BD4680BD00BF00200052004402582B
:103F3800A8DD00081801002080B489B000AF012373
:103F48007B6100233B610123FB600023BB600023EE
:103F58007B604FF000033B604FF00003FB610023E0
:103F6800BB61A84B1B6903F03803182B00F23F8193
:103F780001A252F823F000BFE53F0008F74100080E
:103F8800F7410008F7410008F7410008F741000829
:103F9800F7410008F74100080B400008F741000806
:103FA800F7410008F7410008F7410008F741000809
:103FB800F7410008F741000811400008F7410008E0
:103FC800F7410008F7410008F7410008F7410008E9
:103FD800F7410008F741000817400008894B1B68A3
:103FE80003F02003002B09D0864B1B68DB0803F085
:103FF8000303854A22FA03F3BB61FBE0824BBB61F2
:10400800F8E0824BBB61F5E0814BBB61F2E07D4B90
:104018009B6A03F003033B617A4B9B6A1B0903F01D
:104028003F03FB60774BDB6A03F00103BB60754B12
:104038005B6BDB08C3F30C03BA6802FB03F307EE00
:10404800903AF8EE677AC7ED007A3B69012B55D0B4
:10405800012B02D3022B72D092E06A4B1B6803F04B
:104068002003002B29D0674B1B68DB0803F00303F0
:10407800654A22FA03F37B607A68FB68B2FBF3F3C4
:1040880007EE903AB8EE677A5E4B1B6BC3F30803F2
:1040980007EE903AF8EE676A97ED006ADFED5D5A31
:1040A800C6EE257A76EEA77AF7EE006A77EEA67A5C
:1040B80067EE277AC7ED077A83E0534AFB68B2FBBD
:1040C800F3F307EE903AB8EE677A4E4B1B6BC3F3E7
:1040D800080307EE903AF8EE676A97ED006ADFED9D
:1040E8004D5AC6EE257A76EEA77AF7EE006A77EE95
:1040F800A67A67EE277AC7ED077A62E0434AFB683B
:10410800B2FBF3F307EE903AB8EE677A3D4B1B6BC0
:10411800C3F3080307EE903AF8EE676A97ED006A72
:10412800DFED3C5AC6EE257A76EEA77AF7EE006AFE
:1041380077EEA67A67EE277AC7ED077A41E0344A28
:10414800FB68B2FBF3F307EE903AB8EE677A2D4BB3
:104158001B6BC3F3080307EE903AF8EE676A97ED16
:10416800006ADFED2C5AC6EE257A76EEA77AF7EECE
:10417800006A77EEA67A67EE277AC7ED077A20E01D
:10418800224AFB68B2FBF3F307EE903AB8EE677A7F
:104198001C4B1B6BC3F3080307EE903AF8EE676AF3
:1041A80097ED006ADFED1B5AC6EE257A76EEA77A00
:1041B800F7EE006A77EEA67A67EE277AC7ED077AF8
:1041C80000BF104B1B6B5B0A03F07F0301337B615D
:1041D8007B6907EE903AB8EE677AD7ED076AC6EEC4
:1041E800877AFCEEE77A17EE903ABB6102E0074B5C
:1041F800BB6100BFBB6918462437BD465DF8047B28
:10420800704700BF004402580090D00300093D00E9
:10421800002D31010000004680B582B000AF01F0EA
:1042280015FA01460D4B9B6903F00F0201237B60D1
:104238007B6893FAA3F33B603B68B3FA83F322FAF3
:1042480003F3074AD35C21FA03F3064A1360054BCC
:104258001B6818460837BD4680BD00BF0044025899
:10426800A8DD00081C01002080B582B000AFFFF770
:10427800D3FF01460B4BDB6903F0700210237B6010
:104288007B6893FAA3F33B603B68B3FA83F322FAA3
:1042980003F3054AD35C21FA03F318460837BD46F1
:1042A80080BD00BF00440258A8DD000880B582B078
:1042B80000AFFFF7B1FF01460B4BDB6903F4E06287
:1042C8004FF480737B607B6893FAA3F33B603B6891
:1042D800B3FA83F322FA03F3044AD35C21FA03F313
:1042E80018460837BD4680BD00440258A8DD0008BE
:1042F80080B586B000AF78600023FB750023BB75DE
:104308007B681B6803F00063002B3FD07B685B6E03
:10431800B3F5801F13D0B3F5801F02D8002B07D048
:104328001FE0B3F5001F13D0B3F5401F1CD018E0F1
:10433800B14AB14BDB6A43F40033D36215E07B68C2
:1043480004330221184601F007FA0346FB750CE016
:104358007B6824330221184601F098FA0346FB755E
:1043680003E00123FB7500E000BFFB7D002B09D1B2
:10437800A149A14B1B6D23F440127B685B6E13436C
:104388000B6503E0BA7DFB7D1343BB757B681B6837
:1043980003F48073002B3FD07B685B6D042B26D819
:1043A80001A252F823F000BFC5430008D343000818
:1043B800E5430008FD430008FD4300088E4A8E4B84
:1043C800DB6A43F40033D36215E07B6804330021D1
:1043D800184601F0C1F90346FB750CE07B682433ED
:1043E8000021184601F052FA0346FB7503E0012349
:1043F800FB7500E000BFFB7D002B09D17E497E4B99
:104408001B6D23F007027B685B6D13430B6503E0AC
:10441800BA7DFB7D1343BB757B681B6803F400738F
:10442800002B40D07B689B6D802B1CD0802B04D840
:10443800002B08D0402B0DD01EE0C02B1FD0B3F5A9
:10444800807F1ED018E06C4A6B4BDB6A43F4003364
:10445800D36217E07B6804330021184601F07CF929
:104468000346FB750EE07B6824330021184601F0F3
:104478000DFA0346FB7505E00123FB7502E000BF5A
:1044880000E000BFFB7D002B09D15B495A4B1B6D37
:1044980023F4E0727B689B6D13430B6503E0BA7DE0
:1044A800FB7D1343BB757B681B6803F48063002B9B
:1044B80046D07B68D3F8A430B3F5800F1FD0B3F58E
:1044C800800F05D8002B0AD0B3F5001F0ED01FE0CF
:1044D800B3F5C00F1FD0B3F5000F1ED018E0464A41
:1044E800454BDB6A43F40033D36217E07B6804333F
:1044F8000021184601F030F90346FB750EE07B6891
:1045080024330021184601F0C1F90346FB7505E084
:104518000123FB7502E000BF00E000BFFB7D002B1C
:104528000AD13549344B9B6D23F460027B68D3F87C
:10453800A43013438B6503E0BA7DFB7D1343BB7541
:104548007B681B6803F40063002B46D07B68D3F8B4
:10455800A830B3F1007F1FD0B3F1007F05D8002B3E
:104568000AD0B3F1807F0ED01FE0B3F1407F1FD097
:10457800B3F1806F1ED018E01F4A1F4BDB6A43F46B
:104588000033D36217E07B6804330021184601F03A
:10459800E3F80346FB750EE07B68243300211846D8
:1045A80001F074F90346FB7505E00123FB7502E091
:1045B80000BF00E000BFFB7D002B0AD10E490E4B67
:1045C8009B6D23F0E0627B68D3F8A83013438B65BA
:1045D80003E0BA7DFB7D1343BB757B681B6803F062
:1045E8000073002B36D07B689B6C102B0BD0102BE4
:1045F80004D8002B1AD016E000440258202B09D00A
:10460800302B15D00FE0AE4AAD4BDB6A43F40033D4
:10461800D3620EE07B6804330221184601F09CF84F
:104628000346FB7505E00123FB7502E000BF00E0CF
:1046380000BFFB7D002B09D1A149A14BDB6C23F006
:1046480030027B689B6C1343CB6403E0BA7DFB7D2F
:104658001343BB757B681B6803F48053002B44D05D
:104668007B68DB6DB3F5005F1FD0B3F5005F05D83D
:10467800002B0AD0B3F5805F0ED01FE0B3F5405F82
:104688001FD0B3F5804F1ED018E08D4A8C4BDB6AE3
:1046980043F40033D36217E07B68043300211846E3
:1046A80001F05AF80346FB750EE07B6824330021BD
:1046B800184601F0EBF80346FB7505E00123FB758E
:1046C80002E000BF00E000BFFB7D002B09D17C4960
:1046D8007B4B1B6D23F4E0427B68DB6D13430B655A
:1046E80003E0BA7DFB7D1343BB757B681B6803F44D
:1046F8000053002B44D07B681B6EB3F5003F1BD0E2
:10470800B3F5003F05D8002B22D0B3F5803F0AD07F
:104718001BE0B3F5802F1DD0B3F5A02F1CD0B3F547
:10472800403F1BD011E07B6804330121184601F09B
:1047380013F80346FB7512E07B6824330121184601
:1047480001F0A4F80346FB7509E00123FB7506E0B8
:1047580000BF04E000BF02E000BF00E000BFFB7D37
:10476800002B09D15649564B1B6D23F4E0227B6878
:104778001B6E13430B6503E0BA7DFB7D1343BB75CA
:104788007B681B6803F48043002B46D07B68D3F812
:10479800AC30B3F1005F1BD0B3F1005F05D8002B3C
:1047A80022D0B3F1805F0AD01BE0B3F1804F1DD057
:1047B800B3F1A04F1CD0B3F1405F1BD011E07B6870
:1047C80004330121184600F0C7FF0346FB7512E0C9
:1047D8007B6824330121184601F058F80346FB751D
:1047E80009E00123FB7506E000BF04E000BF02E01A
:1047F80000BF00E000BFFB7D002B0AD13049304BE1
:104808009B6D23F0E0427B68D3F8AC3013438B6593
:1048180003E0BA7DFB7D1343BB757B681B6803F41B
:104828000043002B2FD07B68DB6EB3F1805F05D08F
:10483800B3F1005F09D0002B13D00FE0204A204BC2
:10484800DB6A43F40033D3620CE07B680433012154
:10485800184600F081FF0346FB7503E00123FB7552
:1048680000E000BFFB7D002B09D11549144B1B6DDF
:1048780023F040527B68DB6E13430B6503E0BA7D7F
:10488800FB7D1343BB757B681B6803F08073002BAB
:1048980036D07B685B6C032B1DD801A252F823F03D
:1048A800E5480008B9480008CD480008E548000870
:1048B800034A034BDB6A43F40033D3620FE000BFC3
:1048C800004402587B6804330221184600F044FF74
:1048D8000346FB7503E00123FB7500E000BFFB7D89
:1048E800002B09D1B049B04BDB6C23F003027B6885
:1048F8005B6C1343CB6403E0BA7DFB7D1343BB754C
:104908007B681B6803F48003002B00F08A80A74AA9
:10491800A64B1B6843F480731360FBF7B7FE38613E
:1049280009E0FBF7B3FE02463B69D31A642B02D9B0
:104938000323FB7505E09D4B1B6803F48073002B74
:10494800EFD0FB7D002B68D1974B1A6F7B68D3F8AB
:10495800B030534003F44073002B13D0924B1B6FBD
:1049680023F44073FB60904A8F4B1B6F43F48033F2
:1049780013678D4A8C4B1B6F23F4803313678A4A65
:10498800FB6813677B68D3F8B030B3F5807F15D127
:10499800FBF77CFE38610BE0FBF778FE02463B69CB
:1049A800D31A41F28832934202D90323FB7505E0FA
:1049B8007D4B1B6F03F00203002BEDD0FB7D002B1A
:1049C80026D17B68D3F8B03003F44073B3F5407F49
:1049D8000DD17548744B1B6923F47C527B68D3F85E
:1049E800B0301909724B0B401343036105E06E4A5E
:1049F8006D4B1B6923F47C5313616B496A4B1A6F27
:104A08007B68D3F8B030C3F30B0313430B6708E09C
:104A1800BA7DFB7D1343BB7503E0BA7DFB7D134371
:104A2800BB757B681B6803F00103002B7FD07B6894
:104A38009B6F282B66D801A252F823F0134B00086D
:104A48000D4B00080D4B00080D4B00080D4B0008DE
:104A58000D4B00080D4B00080D4B0008E94A0008F3
:104A68000D4B00080D4B00080D4B00080D4B0008BE
:104A78000D4B00080D4B00080D4B0008FB4A0008C1
:104A88000D4B00080D4B00080D4B00080D4B00089E
:104A98000D4B00080D4B00080D4B0008134B000888
:104AA8000D4B00080D4B00080D4B00080D4B00087E
:104AB8000D4B00080D4B00080D4B0008134B000868
:104AC8000D4B00080D4B00080D4B00080D4B00085E
:104AD8000D4B00080D4B00080D4B0008134B000848
:104AE8007B6804330121184600F036FE0346FB7547
:104AF8000CE07B6824330121184600F0C7FE03460A
:104B0800FB7503E00123FB7500E000BFFB7D002B74
:104B180009D12549244B5B6D23F038027B689B6FD4
:104B280013434B6503E0BA7DFB7D1343BB757B687C
:104B38001B6803F00203002B40D07B685B6F052BDA
:104B480020D801A252F823F0934B0008694B0008C3
:104B58007B4B0008934B0008934B0008934B0008CD
:104B68007B6804330121184600F0F6FD0346FB7507
:104B78000CE07B6824330121184600F087FE0346C9
:104B8800FB7503E00123FB7500E000BFFB7D002BF4
:104B980010D10549044B5B6D23F007027B685B6FFE
:104BA80013434B650AE000BF00440258004802580E
:104BB800CFFFFF00BA7DFB7D1343BB757B681B6885
:104BC80003F00403002B3BD07B68D3F89030052B0F
:104BD80020D801A252F823F0234C0008F94B000812
:104BE8000B4C0008234C0008234C0008234C0008F9
:104BF8007B6804330121184600F0AEFD0346FB75BF
:104C08000CE07B6824330121184600F03FFE034680
:104C1800FB7503E00123FB7500E000BFFB7D002B63
:104C28000AD1B749B64B9B6D23F007027B68D3F8CE
:104C3800903013438B6503E0BA7DFB7D1343BB754E
:104C48007B681B6803F02003002B46D07B68D3F8F1
:104C58008C30B3F1005F1BD0B3F1005F05D8002B97
:104C680022D0B3F1805F0AD01BE0B3F1804F1DD092
:104C7800B3F1A04F1CD0B3F1405F1BD011E07B68AB
:104C880004330021184600F067FD0346FB7512E067
:104C98007B6824330221184600F0F8FD0346FB75B3
:104CA80009E00123FB7506E000BF04E000BF02E055
:104CB80000BF00E000BFFB7D002B0AD19049904B5C
:104CC8005B6D23F0E0427B68D3F88C3013434B656F
:104CD80003E0BA7DFB7D1343BB757B681B6803F05B
:104CE8004003002B46D07B68D3F89830B3F5006FAB
:104CF8001BD0B3F5006F05D8002B22D0B3F5806F19
:104D08000AD01BE0B3F5805F1DD0B3F5A05F1CD0BF
:104D1800B3F5406F1BD011E07B68043300211846BF
:104D280000F01AFD0346FB7512E07B68243302216C
:104D3800184600F0ABFD0346FB7509E00123FB753F
:104D480006E000BF04E000BF02E000BF00E000BFD3
:104D5800FB7D002B0AD16A49694B9B6D23F4E05215
:104D68007B68D3F8983013438B6503E0BA7DFB7DED
:104D78001343BB757B681B6803F08003002B46D088
:104D88007B68D3F89C30B3F5804F1BD0B3F5804FC8
:104D980005D8002B22D0B3F5005F0AD01BE0B3F58D
:104DA800004F1DD0B3F5204F1CD0B3F5C04F1BD01A
:104DB80011E07B6804330021184600F0CDFC03465F
:104DC800FB7512E07B6824330221184600F05EFD73
:104DD8000346FB7509E00123FB7506E000BF04E00C
:104DE80000BF02E000BF00E000BFFB7D002B0AD13E
:104DF8004349434B9B6D23F460427B68D3F89C3056
:104E080013438B6503E0BA7DFB7D1343BB757B6859
:104E18001B6803F00803002B1BD07B68D3F8803095
:104E2800B3F5805F0BD17B6824330221184600F06C
:104E38002DFD03461A46BB7D1343BB7509E0304977
:104E48002F4B5B6D23F440527B68D3F880301343BB
:104E58004B657B681B6803F01003002B1BD07B6835
:104E6800D3F89430B3F5807F0BD17B6824330221CB
:104E7800184600F00BFD03461A46BB7D1343BB756D
:104E880009E01F491E4B9B6D23F440727B68D3F8E1
:104E9800943013438B657B681B6803F40023002B55
:104EA80034D07B68D3F8A030B3F5803F0DD0B3F58C
:104EB800003F16D0002B11D17B680433002118461F
:104EC80000F04AFC0346FB750CE07B6824330221A2
:104ED800184600F0DBFC0346FB7503E00123FB7575
:104EE80000E000BFFB7D002B0CD10549044B9B6DF6
:104EF80023F440327B68D3F8A03013438B6505E078
:104F080000440258BA7DFB7D1343BB757B681B6860
:104F180003F48023002B31D07B68D3F88430B3F5B9
:104F2800001F0CD0B3F5401F15D0B3F5801F0FD16B
:104F38007C4A7C4BDB6A43F40033D3620CE07B6829
:104F480024330121184600F0A1FC0346FB7503E059
:104F58000123FB7500E000BFFB7D002B0AD17149DE
:104F6800704B5B6D23F440127B68D3F88430134395
:104F78004B6503E0BA7DFB7D1343BB757B681B68FB
:104F880003F48033002B2BD07B68DB6C002B03D021
:104F9800B3F5803F07D00FE0624A624BDB6A43F407
:104FA8000033D3620BE07B6804330221184600F01B
:104FB800D3FB0346FB7502E00123FB7500BFFB7DB5
:104FC800002B09D15749574BDB6C23F480327B689F
:104FD800DB6C1343CB6403E0BA7DFB7D1343BB75E5
:104FE8007B681B6803F00053002B0AD07B682433CE
:104FF8000221184600F04AFC03461A46BB7D1343BB
:10500800BB757B681B6803F40033002B31D07B68C9
:10501800DB6FB3F5807F0CD0B3F5807F02D8002B0F
:1050280011D00DE0B3F5007F0FD0B3F5407F0ED05F
:1050380006E03C4A3B4BDB6A43F40033D36207E0AB
:105048000123FB7504E000BF02E000BF00E000BFE1
:10505800FB7D002B09D13349324B5B6D23F4407241
:105068007B68DB6F13434B6503E0BA7DFB7D13431D
:10507800BB757B681B6803F48013002B08D0294993
:10508800284B1B6D23F000427B681B6F13430B6595
:105098007B681B6803F08053002B09D02149214B02
:1050A8001B6923F480427B68D3F8B43013430B6147
:1050B8007B681B6803F40013002B08D01949194BAF
:1050C8001B6D23F080727B689B6E13430B657B68B6
:1050D8001B6803F08043002B0DD0124A114B1B694B
:1050E80023F4004313610F490E4B1A697B68D3F808
:1050F800B83013430B617B681B68002B08DA094939
:10510800084BDB6C23F040527B681B6D1343CB6468
:10511800BB7D002B01D1002300E00123184618377E
:10512800BD4680BD0044025880B582B000AFFFF78D
:1051380073F801460B4B1B6A03F0700210237B6067
:105148007B6893FAA3F33B603B68B3FA83F322FAD4
:1051580003F3054AD35C21FA03F318460837BD4622
:1051680080BD00BF00440258A8DD000880B489B0A3
:1051780000AF78600023BB6101237B6100233B61A2
:105188000023FB604FF00003BB604FF00003FB619E
:105198008D4B9B6A03F00303BB618B4B9B6A1B0B14
:1051A80003F03F037B61884BDB6A03F010033B612C
:1051B800854BDB6BDB08C3F30C033A6902FB03F393
:1051C80007EE903AF8EE677AC7ED027ABB69012BD1
:1051D80055D0012B02D3022B72D092E07A4B1B6878
:1051E80003F02003002B29D0774B1B68DB0803F062
:1051F8000303764A22FA03F3FB60FA687B69B2FB81
:10520800F3F307EE903AB8EE677A6F4B9B6BC3F3F4
:10521800080307EE903AF8EE676A97ED026ADFED49
:105228006C5AC6EE257A76EEA77AF7EE006A77EE24
:10523800A67A67EE277AC7ED077A83E0634A7B6927
:10524800B2FBF3F307EE903AB8EE677A5E4B9B6BCE
:10525800C3F3080307EE903AF8EE676A97ED026A1F
:10526800DFED5B5AC6EE257A76EEA77AF7EE006A8E
:1052780077EEA67A67EE277AC7ED077A62E0554A95
:105288007B69B2FBF3F307EE903AB8EE677A4E4BC0
:105298009B6BC3F3080307EE903AF8EE676A97ED45
:1052A800026ADFED4B5AC6EE257A76EEA77AF7EE5C
:1052B800006A77EEA67A67EE277AC7ED077A41E0AB
:1052C800454A7B69B2FBF3F307EE903AB8EE677A8A
:1052D8003D4B9B6BC3F3080307EE903AF8EE676A01
:1052E80097ED026ADFED3A5AC6EE257A76EEA77A8E
:1052F800F7EE006A77EEA67A67EE277AC7ED077AA7
:1053080020E0344A7B69B2FBF3F307EE903AB8EE3B
:10531800677A2D4B9B6BC3F3080307EE903AF8EEC0
:10532800676A97ED026ADFED2A5AC6EE257A76EEAD
:10533800A77AF7EE006A77EEA67A67EE277AC7EDC6
:10534800077A00BF204B9B6B5B0A03F07F03013396
:1053580007EE903AB8EE677AD7ED076AC6EE877A15
:10536800FCEEE77A17EE902A7B681A60164B9B6B67
:105378001B0C03F07F03013307EE903AB8EE677A0F
:10538800D7ED076AC6EE877AFCEEE77A17EE902A21
:105398007B685A600C4B9B6B1B0E03F07F03013339
:1053A80007EE903AB8EE677AD7ED076AC6EE877AC5
:1053B800FCEEE77A17EE902A7B689A6000BF2437E4
:1053C800BD465DF8047B7047004402580090D00346
:1053D8000000004600093D00002D310180B489B06D
:1053E80000AF78600023BB6101237B6100233B6130
:1053F8000023FB604FF00003BB604FF00003FB612C
:105408008D4B9B6A03F00303BB618B4B9B6A1B0D9F
:1054180003F03F037B61884BDB6A03F480733B61D5
:10542800854B5B6CDB08C3F30C033A6902FB03F39F
:1054380007EE903AF8EE677AC7ED027ABB69012B5E
:1054480055D0012B02D3022B72D092E07A4B1B6805
:1054580003F02003002B29D0774B1B68DB0803F0EF
:105468000303764A22FA03F3FB60FA687B69B2FB0E
:10547800F3F307EE903AB8EE677A6F4B1B6CC3F301
:10548800080307EE903AF8EE676A97ED026ADFEDD7
:105498006C5AC6EE257A76EEA77AF7EE006A77EEB2
:1054A800A67A67EE277AC7ED077A83E0634A7B69B5
:1054B800B2FBF3F307EE903AB8EE677A5E4B1B6CDB
:1054C800C3F3080307EE903AF8EE676A97ED026AAD
:1054D800DFED5B5AC6EE257A76EEA77AF7EE006A1C
:1054E80077EEA67A67EE277AC7ED077A62E0554A23
:1054F8007B69B2FBF3F307EE903AB8EE677A4E4B4E
:105508001B6CC3F3080307EE903AF8EE676A97ED51
:10551800026ADFED4B5AC6EE257A76EEA77AF7EEE9
:10552800006A77EEA67A67EE277AC7ED077A41E038
:10553800454A7B69B2FBF3F307EE903AB8EE677A17
:105548003D4B1B6CC3F3080307EE903AF8EE676A0D
:1055580097ED026ADFED3A5AC6EE257A76EEA77A1B
:10556800F7EE006A77EEA67A67EE277AC7ED077A34
:1055780020E0344A7B69B2FBF3F307EE903AB8EEC9
:10558800677A2D4B1B6CC3F3080307EE903AF8EECD
:10559800676A97ED026ADFED2A5AC6EE257A76EE3B
:1055A800A77AF7EE006A77EEA67A67EE277AC7ED54
:1055B800077A00BF204B1B6C5B0A03F07F030133A3
:1055C80007EE903AB8EE677AD7ED076AC6EE877AA3
:1055D800FCEEE77A17EE902A7B681A60164B1B6C74
:1055E8001B0C03F07F03013307EE903AB8EE677A9D
:1055F800D7ED076AC6EE877AFCEEE77A17EE902AAF
:105608007B685A600C4B1B6C1B0E03F07F03013345
:1056180007EE903AB8EE677AD7ED076AC6EE877A52
:10562800FCEEE77A17EE902A7B689A6000BF243771
:10563800BD465DF8047B7047004402580090D003D3
:105648000000004600093D00002D310180B582B000
:1056580000AFFEF771FC01460D4B9B6903F47062C5
:105668004FF480737B607B6893FAA3F33B603B68DD
:10567800B3FA83F322FA03F3064AD35C21FA03F35D
:10568800054A1360044B1B6818460837BD4680BDA1
:1056980000440258A8DD00081801002080B489B031
:1056A80000AF78600023FB61294A294BD3F8943076
:1056B80043F00203C2F89430254A254BD3F89430BE
:1056C80023F00203C2F894307B681A687B685B6831
:1056D8001A437B689B681343FB617B68DB68FA6944
:1056E8001343FB617B681A694FF47F033B613B6995
:1056F80093FAA3F3FB60FB68B3FA83F302FA03F3AC
:10570800FA691343FB61134AFB6953601148114B53
:105718001B6823F47C527B6859694FF47C53BB6146
:10572800BB6993FAA3F37B617B69B3FA83F301FA4C
:1057380003F313430360074A064B1B6843F06003F7
:10574800136000BF2437BD465DF8047B704700BF77
:10575800004402580084004080B584B000AF7860EF
:1057680039600023FB73484B9B6A03F00303032B48
:1057780001D1012383E0444A434B1B6823F0806333
:105788001360FAF783FFB86008E0FAF77FFF024674
:10579800BB68D31A022B01D9032370E03A4B1B686C
:1057A80003F00063002BF0D13749374B9B6A23F491
:1057B8007C327B681B681B0313438B6232497B680E
:1057C8005B68013BC3F308027B689B68013B5B0293
:1057D8009BB21A437B68DB68013B1B0403F4FE039E
:1057E8001A437B681B69013B1B0603F0FE43134306
:1057F8008B632549244BDB6A23F0C0027B685B6915
:105808001343CB622049204BDB6A23F020027B68DC
:105818009B691343CB623B68002B06D11A4A1A4B8B
:10582800DB6A43F40023D3620FE03B68012B06D107
:10583800154A154BDB6A43F48013D36205E0124A1C
:10584800114BDB6A43F40013D3620F4A0E4B1B68FB
:1058580043F080631360FAF719FFB86008E0FAF7BD
:1058680015FF0246BB68D31A022B01D9032306E0B1
:10587800054B1B6803F00063002BF0D0FB7B184638
:105888001037BD4680BD00BF0044025880B584B0C3
:1058980000AF786039600023FB73484B9B6A03F0C4
:1058A8000303032B01D1012383E0444A434B1B68C4
:1058B80023F080531360FAF7E9FEB86008E0FAF7BE
:1058C800E5FE0246BB68D31A022B01D9032370E018
:1058D8003A4B1B6803F00053002BF0D13749374B84
:1058E8009B6A23F07C727B681B681B0513438B62E1
:1058F80032497B685B68013BC3F308027B689B689D
:10590800013B5B029BB21A437B68DB68013B1B04CB
:1059180003F4FE031A437B681B69013B1B0603F073
:10592800FE4313430B642549244BDB6A23F440628E
:105938007B685B691343CB622049204BDB6A23F405
:1059480000727B689B691343CB623B68002B06D1CE
:105958001A4A1A4BDB6A43F48003D3620FE03B68B0
:10596800012B06D1154A154BDB6A43F40003D362B9
:1059780005E0124A114BDB6A43F08073D3620F4A89
:105988000E4B1B6843F080531360FAF77FFEB86034
:1059980008E0FAF77BFE0246BB68D31A022B01D94E
:1059A800032306E0054B1B6803F00053002BF0D0DF
:1059B800FB7B18461037BD4680BD00BF0044025827
:1059C80080B584B000AF78600023FB600023BB6023
:1059D8007B68002B01D10123E0E07B6800229A62FA
:1059E8007B681B686F4A93420FD07B681B686E4ABE
:1059F80093420AD07B681B686C4A934205D07B6847
:105A0800DB680F2B01D90123C8E0786801F044FA5C
:105A1800B8607B681B68634A93420CD07B681B683C
:105A2800614A934207D07B681B68604A934202D060
:105A3800BB68082B11D87B681B685A4A934209D067
:105A48007B681B68584A934204D07B681B68574A96
:105A5800934204D1BB68102B01D901239EE07B68D7
:105A680093F88130DBB2002B06D17B68002283F8E3
:105A78008020786805F0CCFF7B68022283F88120BB
:105A88007B681B687A681268126822F001021A6043
:105A98007B689B69B3F1806F10D17B685B68B3F555
:105AA800800F0BD17B689B6B002B07D17B681B6831
:105AB8007A681268126842F480521A607B681B6820
:105AC8007A68D1697A68926A1143FA6811437A68E8
